{
	"Contracts/SampleSelfDestruct.sol": {
		"StartStopUpdateExample": {
			"abi": [
				{
					"inputs": [],
					"name": "destroySmartContract",
					"outputs": [],
					"stateMutability": "nonpayable",
					"type": "function"
				},
				{
					"stateMutability": "payable",
					"type": "receive"
				}
			],
			"devdoc": {
				"kind": "dev",
				"methods": {},
				"version": 1
			},
			"evm": {
				"assembly": "    /* \"Contracts/SampleSelfDestruct.sol\":61:231  contract StartStopUpdateExample {... */\n  mstore(0x40, 0x80)\n  callvalue\n  dup1\n  iszero\n  tag_1\n  jumpi\n  0x00\n  dup1\n  revert\ntag_1:\n  pop\n  dataSize(sub_0)\n  dup1\n  dataOffset(sub_0)\n  0x00\n  codecopy\n  0x00\n  return\nstop\n\nsub_0: assembly {\n        /* \"Contracts/SampleSelfDestruct.sol\":61:231  contract StartStopUpdateExample {... */\n      mstore(0x40, 0x80)\n      jumpi(tag_1, lt(calldatasize, 0x04))\n      shr(0xe0, calldataload(0x00))\n      dup1\n      0x85474728\n      eq\n      tag_3\n      jumpi\n      jump(tag_2)\n    tag_1:\n      jumpi(tag_2, calldatasize)\n      stop\n    tag_2:\n      0x00\n      dup1\n      revert\n        /* \"Contracts/SampleSelfDestruct.sol\":137:228  function destroySmartContract() public {... */\n    tag_3:\n      callvalue\n      dup1\n      iszero\n      tag_6\n      jumpi\n      0x00\n      dup1\n      revert\n    tag_6:\n      pop\n      tag_7\n      tag_8\n      jump\t// in\n    tag_7:\n      stop\n    tag_8:\n        /* \"Contracts/SampleSelfDestruct.sol\":208:218  msg.sender */\n      caller\n        /* \"Contracts/SampleSelfDestruct.sol\":187:220  selfdestruct(payable(msg.sender)) */\n      0xffffffffffffffffffffffffffffffffffffffff\n      and\n      selfdestruct\n\n    auxdata: 0xa2646970667358221220baf88f43cf3c50270d96c502ef96346a03da59632147186d42bd5a396572a80b64736f6c634300081a0033\n}\n",
				"bytecode": {
					"linkReferences": {},
					"object": "6080604052348015600e575f80fd5b50608a80601a5f395ff3fe608060405260043610601e575f3560e01c806385474728146028576024565b36602457005b5f80fd5b3480156032575f80fd5b506039603b565b005b3373ffffffffffffffffffffffffffffffffffffffff16fffea2646970667358221220baf88f43cf3c50270d96c502ef96346a03da59632147186d42bd5a396572a80b64736f6c634300081a0033",
					"opcodes": "PUSH1 0x80 PUSH1 0x40 MSTORE CALLVALUE DUP1 ISZERO PUSH1 0xE JUMPI PUSH0 DUP1 REVERT JUMPDEST POP PUSH1 0x8A DUP1 PUSH1 0x1A PUSH0 CODECOPY PUSH0 RETURN INVALID PUSH1 0x80 PUSH1 0x40 MSTORE PUSH1 0x4 CALLDATASIZE LT PUSH1 0x1E JUMPI PUSH0 CALLDATALOAD PUSH1 0xE0 SHR DUP1 PUSH4 0x85474728 EQ PUSH1 0x28 JUMPI PUSH1 0x24 JUMP JUMPDEST CALLDATASIZE PUSH1 0x24 JUMPI STOP JUMPDEST PUSH0 DUP1 REVERT JUMPDEST CALLVALUE DUP1 ISZERO PUSH1 0x32 JUMPI PUSH0 DUP1 REVERT JUMPDEST POP PUSH1 0x39 PUSH1 0x3B JUMP JUMPDEST STOP JUMPDEST CALLER PUSH20 0xFFFFFFFFFFFFFFFFFFFFFFFFFFFFFFFFFFFFFFFF AND SELFDESTRUCT INVALID LOG2 PUSH5 0x6970667358 0x22 SLT KECCAK256 0xBA 0xF8 DUP16 NUMBER 0xCF EXTCODECOPY POP 0x27 0xD SWAP7 0xC5 MUL 0xEF SWAP7 CALLVALUE PUSH11 0x3DA59632147186D42BD5A CODECOPY PUSH6 0x72A80B64736F PUSH13 0x634300081A0033000000000000 "
				},
				"gasEstimates": {
					"creation": {
						"codeDepositCost": "27600",
						"executionCost": "79",
						"totalCost": "27679"
					},
					"external": {
						"destroySmartContract()": "27720"
					}
				},
				"methodIdentifiers": {
					"destroySmartContract()": "85474728"
				}
			},
			"storageLayout": {
				"storage": [],
				"types": null
			},
			"userdoc": {
				"kind": "user",
				"methods": {},
				"version": 1
			}
		}
	}
}